{"contracts/RPlace.sol":{"RPlace":{"abi":[{"inputs":[{"internalType":"uint256","name":"size","type":"uint256"}],"name":"BatchTooLarge","type":"error"},{"inputs":[],"name":"EmptyBatch","type":"error"},{"inputs":[{"internalType":"uint8","name":"x","type":"uint8"},{"internalType":"uint8","name":"y","type":"uint8"}],"name":"OutOfBounds","type":"error"},{"anonymous":false,"inputs":[{"indexed":true,"internalType":"uint8","name":"x","type":"uint8"},{"indexed":true,"internalType":"uint8","name":"y","type":"uint8"},{"indexed":false,"internalType":"uint24","name":"rgb","type":"uint24"},{"indexed":true,"internalType":"address","name":"painter","type":"address"}],"name":"PixelPainted","type":"event"},{"inputs":[],"name":"HEIGHT","outputs":[{"internalType":"uint8","name":"","type":"uint8"}],"stateMutability":"view","type":"function"},{"inputs":[],"name":"MAX_BATCH","outputs":[{"internalType":"uint256","name":"","type":"uint256"}],"stateMutability":"view","type":"function"},{"inputs":[],"name":"TOTAL","outputs":[{"internalType":"uint16","name":"","type":"uint16"}],"stateMutability":"view","type":"function"},{"inputs":[],"name":"WIDTH","outputs":[{"internalType":"uint8","name":"","type":"uint8"}],"stateMutability":"view","type":"function"},{"inputs":[],"name":"getCanvas","outputs":[{"internalType":"uint24[4096]","name":"","type":"uint24[4096]"}],"stateMutability":"view","type":"function"},{"inputs":[{"internalType":"uint8","name":"x","type":"uint8"},{"internalType":"uint8","name":"y","type":"uint8"}],"name":"getPixel","outputs":[{"internalType":"uint24","name":"","type":"uint24"}],"stateMutability":"view","type":"function"},{"inputs":[{"internalType":"uint40[]","name":"packed","type":"uint40[]"}],"name":"paintPixels","outputs":[],"stateMutability":"nonpayable","type":"function"},{"inputs":[],"name":"version","outputs":[{"internalType":"uint64","name":"","type":"uint64"}],"stateMutability":"view","type":"function"}],"evm":{"bytecode":{"linkReferences":{},"object":"608060405234801561001057600080fd5b5061067d806100206000396000f3fe608060405234801561001057600080fd5b50600436106100885760003560e01c806354fd4d501161005b57806354fd4d501461010257806369ea80d514610130578063950bff9f1461014a578063d44d33941461013057600080fd5b806301bd86b61461008d57806306a00d43146100a257806327efc086146100c05780633c98c38e146100db575b600080fd5b6100a061009b3660046104ae565b610161565b005b6100aa61037d565b6040516100b79190610523565b60405180910390f35b6100c86103e3565b60405161ffff90911681526020016100b7565b6100ee6100e9366004610572565b6103f1565b60405162ffffff90911681526020016100b7565b61019a546101179067ffffffffffffffff1681565b60405167ffffffffffffffff90911681526020016100b7565b610138604081565b60405160ff90911681526020016100b7565b61015361010081565b6040519081526020016100b7565b8060008190036101845760405163c2e5347d60e01b815260040160405180910390fd5b6101008111156101af5760405163533dcfcf60e11b8152600481018290526024015b60405180910390fd5b60005b8181101561035257600060208585848181106101d0576101d06105a5565b90506020020160208101906101e591906105bb565b64ffffffffff16901c905060006018868685818110610206576102066105a5565b905060200201602081019061021b91906105bb565b64ffffffffff16901c9050600086868581811061023a5761023a6105a5565b905060200201602081019061024f91906105bb565b9050604060ff84161015806102685750604060ff831610155b156102935760405163d47d572960e01b815260ff8085166004830152831660248201526044016101a6565b80600060ff808616906102aa9060409087166105ff565b6102b49190610625565b61ffff1661100081106102c9576102c96105a5565b600a91828204019190066003026101000a81548162ffffff021916908362ffffff160217905550336001600160a01b03168260ff168460ff167f892eb2ad44ef0a061063077a9ee9df7bcad133acb6073aa084b762f393f7d5598460405161033c919062ffffff91909116815260200190565b60405180910390a45050508060010190506101b2565b505061019a805467ffffffffffffffff8082166001011667ffffffffffffffff199091161790555050565b61038561048d565b604080516202000081019182905290600090611000908280855b82829054906101000a900462ffffff1662ffffff168152602001906003019060208260020104928301926001038202915080841161039f5790505050505050905090565b6103ee6040806105ff565b81565b6000604060ff841610158061040a5750604060ff831610155b156104355760405163d47d572960e01b815260ff8085166004830152831660248201526044016101a6565b600060ff8085169061044b9060409086166105ff565b6104559190610625565b61ffff16611000811061046a5761046a6105a5565b600a91828204019190066003029054906101000a900462ffffff16905092915050565b60405180620200000160405280611000906020820280368337509192915050565b600080602083850312156104c157600080fd5b823567ffffffffffffffff808211156104d957600080fd5b818501915085601f8301126104ed57600080fd5b8135818111156104fc57600080fd5b8660208260051b850101111561051157600080fd5b60209290920196919550909350505050565b620200008101818360005b61100081101561055357815162ffffff1683526020928301929091019060010161052e565b50505092915050565b803560ff8116811461056d57600080fd5b919050565b6000806040838503121561058557600080fd5b61058e8361055c565b915061059c6020840161055c565b90509250929050565b634e487b7160e01b600052603260045260246000fd5b6000602082840312156105cd57600080fd5b813564ffffffffff811681146105e257600080fd5b9392505050565b634e487b7160e01b600052601160045260246000fd5b61ffff81811683821602808216919082811461061d5761061d6105e9565b505092915050565b61ffff818116838216019080821115610640576106406105e9565b509291505056fea2646970667358221220f6fdcbbe373caa7ee23ce4e55301b38d6c84e6b41051fa96b168cbb361a5d51a64736f6c63430008180033","opcodes":"PUSH1 0x80 PUSH1 0x40 MSTORE CALLVALUE DUP1 ISZERO PUSH2 0x10 JUMPI PUSH1 0x0 DUP1 REVERT JUMPDEST POP PUSH2 0x67D DUP1 PUSH2 0x20 PUSH1 0x0 CODECOPY PUSH1 0x0 RETURN INVALID PUSH1 0x80 PUSH1 0x40 MSTORE CALLVALUE DUP1 ISZERO PUSH2 0x10 JUMPI PUSH1 0x0 DUP1 REVERT JUMPDEST POP PUSH1 0x4 CALLDATASIZE LT PUSH2 0x88 JUMPI PUSH1 0x0 CALLDATALOAD PUSH1 0xE0 SHR DUP1 PUSH4 0x54FD4D50 GT PUSH2 0x5B JUMPI DUP1 PUSH4 0x54FD4D50 EQ PUSH2 0x102 JUMPI DUP1 PUSH4 0x69EA80D5 EQ PUSH2 0x130 JUMPI DUP1 PUSH4 0x950BFF9F EQ PUSH2 0x14A JUMPI DUP1 PUSH4 0xD44D3394 EQ PUSH2 0x130 JUMPI PUSH1 0x0 DUP1 REVERT JUMPDEST DUP1 PUSH4 0x1BD86B6 EQ PUSH2 0x8D JUMPI DUP1 PUSH4 0x6A00D43 EQ PUSH2 0xA2 JUMPI DUP1 PUSH4 0x27EFC086 EQ PUSH2 0xC0 JUMPI DUP1 PUSH4 0x3C98C38E EQ PUSH2 0xDB JUMPI JUMPDEST PUSH1 0x0 DUP1 REVERT JUMPDEST PUSH2 0xA0 PUSH2 0x9B CALLDATASIZE PUSH1 0x4 PUSH2 0x4AE JUMP JUMPDEST PUSH2 0x161 JUMP JUMPDEST STOP JUMPDEST PUSH2 0xAA PUSH2 0x37D JUMP JUMPDEST PUSH1 0x40 MLOAD PUSH2 0xB7 SWAP2 SWAP1 PUSH2 0x523 JUMP JUMPDEST PUSH1 0x40 MLOAD DUP1 SWAP2 SUB SWAP1 RETURN JUMPDEST PUSH2 0xC8 PUSH2 0x3E3 JUMP JUMPDEST PUSH1 0x40 MLOAD PUSH2 0xFFFF SWAP1 SWAP2 AND DUP2 MSTORE PUSH1 0x20 ADD PUSH2 0xB7 JUMP JUMPDEST PUSH2 0xEE PUSH2 0xE9 CALLDATASIZE PUSH1 0x4 PUSH2 0x572 JUMP JUMPDEST PUSH2 0x3F1 JUMP JUMPDEST PUSH1 0x40 MLOAD PUSH3 0xFFFFFF SWAP1 SWAP2 AND DUP2 MSTORE PUSH1 0x20 ADD PUSH2 0xB7 JUMP JUMPDEST PUSH2 0x19A SLOAD PUSH2 0x117 SWAP1 PUSH8 0xFFFFFFFFFFFFFFFF AND DUP2 JUMP JUMPDEST PUSH1 0x40 MLOAD PUSH8 0xFFFFFFFFFFFFFFFF SWAP1 SWAP2 AND DUP2 MSTORE PUSH1 0x20 ADD PUSH2 0xB7 JUMP JUMPDEST PUSH2 0x138 PUSH1 0x40 DUP2 JUMP JUMPDEST PUSH1 0x40 MLOAD PUSH1 0xFF SWAP1 SWAP2 AND DUP2 MSTORE PUSH1 0x20 ADD PUSH2 0xB7 JUMP JUMPDEST PUSH2 0x153 PUSH2 0x100 DUP2 JUMP JUMPDEST PUSH1 0x40 MLOAD SWAP1 DUP2 MSTORE PUSH1 0x20 ADD PUSH2 0xB7 JUMP JUMPDEST DUP1 PUSH1 0x0 DUP2 SWAP1 SUB PUSH2 0x184 JUMPI PUSH1 0x40 MLOAD PUSH4 0xC2E5347D PUSH1 0xE0 SHL DUP2 MSTORE PUSH1 0x4 ADD PUSH1 0x40 MLOAD DUP1 SWAP2 SUB SWAP1 REVERT JUMPDEST PUSH2 0x100 DUP2 GT ISZERO PUSH2 0x1AF JUMPI PUSH1 0x40 MLOAD PUSH4 0x533DCFCF PUSH1 0xE1 SHL DUP2 MSTORE PUSH1 0x4 DUP2 ADD DUP3 SWAP1 MSTORE PUSH1 0x24 ADD JUMPDEST PUSH1 0x40 MLOAD DUP1 SWAP2 SUB SWAP1 REVERT JUMPDEST PUSH1 0x0 JUMPDEST DUP2 DUP2 LT ISZERO PUSH2 0x352 JUMPI PUSH1 0x0 PUSH1 0x20 DUP6 DUP6 DUP5 DUP2 DUP2 LT PUSH2 0x1D0 JUMPI PUSH2 0x1D0 PUSH2 0x5A5 JUMP JUMPDEST SWAP1 POP PUSH1 0x20 MUL ADD PUSH1 0x20 DUP2 ADD SWAP1 PUSH2 0x1E5 SWAP2 SWAP1 PUSH2 0x5BB JUMP JUMPDEST PUSH5 0xFFFFFFFFFF AND SWAP1 SHR SWAP1 POP PUSH1 0x0 PUSH1 0x18 DUP7 DUP7 DUP6 DUP2 DUP2 LT PUSH2 0x206 JUMPI PUSH2 0x206 PUSH2 0x5A5 JUMP JUMPDEST SWAP1 POP PUSH1 0x20 MUL ADD PUSH1 0x20 DUP2 ADD SWAP1 PUSH2 0x21B SWAP2 SWAP1 PUSH2 0x5BB JUMP JUMPDEST PUSH5 0xFFFFFFFFFF AND SWAP1 SHR SWAP1 POP PUSH1 0x0 DUP7 DUP7 DUP6 DUP2 DUP2 LT PUSH2 0x23A JUMPI PUSH2 0x23A PUSH2 0x5A5 JUMP JUMPDEST SWAP1 POP PUSH1 0x20 MUL ADD PUSH1 0x20 DUP2 ADD SWAP1 PUSH2 0x24F SWAP2 SWAP1 PUSH2 0x5BB JUMP JUMPDEST SWAP1 POP PUSH1 0x40 PUSH1 0xFF DUP5 AND LT ISZERO DUP1 PUSH2 0x268 JUMPI POP PUSH1 0x40 PUSH1 0xFF DUP4 AND LT ISZERO JUMPDEST ISZERO PUSH2 0x293 JUMPI PUSH1 0x40 MLOAD PUSH4 0xD47D5729 PUSH1 0xE0 SHL DUP2 MSTORE PUSH1 0xFF DUP1 DUP6 AND PUSH1 0x4 DUP4 ADD MSTORE DUP4 AND PUSH1 0x24 DUP3 ADD MSTORE PUSH1 0x44 ADD PUSH2 0x1A6 JUMP JUMPDEST DUP1 PUSH1 0x0 PUSH1 0xFF DUP1 DUP7 AND SWAP1 PUSH2 0x2AA SWAP1 PUSH1 0x40 SWAP1 DUP8 AND PUSH2 0x5FF JUMP JUMPDEST PUSH2 0x2B4 SWAP2 SWAP1 PUSH2 0x625 JUMP JUMPDEST PUSH2 0xFFFF AND PUSH2 0x1000 DUP2 LT PUSH2 0x2C9 JUMPI PUSH2 0x2C9 PUSH2 0x5A5 JUMP JUMPDEST PUSH1 0xA SWAP2 DUP3 DUP3 DIV ADD SWAP2 SWAP1 MOD PUSH1 0x3 MUL PUSH2 0x100 EXP DUP2 SLOAD DUP2 PUSH3 0xFFFFFF MUL NOT AND SWAP1 DUP4 PUSH3 0xFFFFFF AND MUL OR SWAP1 SSTORE POP CALLER PUSH1 0x1 PUSH1 0x1 PUSH1 0xA0 SHL SUB AND DUP3 PUSH1 0xFF AND DUP5 PUSH1 0xFF AND PUSH32 0x892EB2AD44EF0A061063077A9EE9DF7BCAD133ACB6073AA084B762F393F7D559 DUP5 PUSH1 0x40 MLOAD PUSH2 0x33C SWAP2 SWAP1 PUSH3 0xFFFFFF SWAP2 SWAP1 SWAP2 AND DUP2 MSTORE PUSH1 0x20 ADD SWAP1 JUMP JUMPDEST PUSH1 0x40 MLOAD DUP1 SWAP2 SUB SWAP1 LOG4 POP POP POP DUP1 PUSH1 0x1 ADD SWAP1 POP PUSH2 0x1B2 JUMP JUMPDEST POP POP PUSH2 0x19A DUP1 SLOAD PUSH8 0xFFFFFFFFFFFFFFFF DUP1 DUP3 AND PUSH1 0x1 ADD AND PUSH8 0xFFFFFFFFFFFFFFFF NOT SWAP1 SWAP2 AND OR SWAP1 SSTORE POP POP JUMP JUMPDEST PUSH2 0x385 PUSH2 0x48D JUMP JUMPDEST PUSH1 0x40 DUP1 MLOAD PUSH3 0x20000 DUP2 ADD SWAP2 DUP3 SWAP1 MSTORE SWAP1 PUSH1 0x0 SWAP1 PUSH2 0x1000 SWAP1 DUP3 DUP1 DUP6 JUMPDEST DUP3 DUP3 SWAP1 SLOAD SWAP1 PUSH2 0x100 EXP SWAP1 DIV PUSH3 0xFFFFFF AND PUSH3 0xFFFFFF AND DUP2 MSTORE PUSH1 0x20 ADD SWAP1 PUSH1 0x3 ADD SWAP1 PUSH1 0x20 DUP3 PUSH1 0x2 ADD DIV SWAP3 DUP4 ADD SWAP3 PUSH1 0x1 SUB DUP3 MUL SWAP2 POP DUP1 DUP5 GT PUSH2 0x39F JUMPI SWAP1 POP POP POP POP POP POP SWAP1 POP SWAP1 JUMP JUMPDEST PUSH2 0x3EE PUSH1 0x40 DUP1 PUSH2 0x5FF JUMP JUMPDEST DUP2 JUMP JUMPDEST PUSH1 0x0 PUSH1 0x40 PUSH1 0xFF DUP5 AND LT ISZERO DUP1 PUSH2 0x40A JUMPI POP PUSH1 0x40 PUSH1 0xFF DUP4 AND LT ISZERO JUMPDEST ISZERO PUSH2 0x435 JUMPI PUSH1 0x40 MLOAD PUSH4 0xD47D5729 PUSH1 0xE0 SHL DUP2 MSTORE PUSH1 0xFF DUP1 DUP6 AND PUSH1 0x4 DUP4 ADD MSTORE DUP4 AND PUSH1 0x24 DUP3 ADD MSTORE PUSH1 0x44 ADD PUSH2 0x1A6 JUMP JUMPDEST PUSH1 0x0 PUSH1 0xFF DUP1 DUP6 AND SWAP1 PUSH2 0x44B SWAP1 PUSH1 0x40 SWAP1 DUP7 AND PUSH2 0x5FF JUMP JUMPDEST PUSH2 0x455 SWAP2 SWAP1 PUSH2 0x625 JUMP JUMPDEST PUSH2 0xFFFF AND PUSH2 0x1000 DUP2 LT PUSH2 0x46A JUMPI PUSH2 0x46A PUSH2 0x5A5 JUMP JUMPDEST PUSH1 0xA SWAP2 DUP3 DUP3 DIV ADD SWAP2 SWAP1 MOD PUSH1 0x3 MUL SWAP1 SLOAD SWAP1 PUSH2 0x100 EXP SWAP1 DIV PUSH3 0xFFFFFF AND SWAP1 POP SWAP3 SWAP2 POP POP JUMP JUMPDEST PUSH1 0x40 MLOAD DUP1 PUSH3 0x20000 ADD PUSH1 0x40 MSTORE DUP1 PUSH2 0x1000 SWAP1 PUSH1 0x20 DUP3 MUL DUP1 CALLDATASIZE DUP4 CALLDATACOPY POP SWAP2 SWAP3 SWAP2 POP POP JUMP JUMPDEST PUSH1 0x0 DUP1 PUSH1 0x20 DUP4 DUP6 SUB SLT ISZERO PUSH2 0x4C1 JUMPI PUSH1 0x0 DUP1 REVERT JUMPDEST DUP3 CALLDATALOAD PUSH8 0xFFFFFFFFFFFFFFFF DUP1 DUP3 GT ISZERO PUSH2 0x4D9 JUMPI PUSH1 0x0 DUP1 REVERT JUMPDEST DUP2 DUP6 ADD SWAP2 POP DUP6 PUSH1 0x1F DUP4 ADD SLT PUSH2 0x4ED JUMPI PUSH1 0x0 DUP1 REVERT JUMPDEST DUP2 CALLDATALOAD DUP2 DUP2 GT ISZERO PUSH2 0x4FC JUMPI PUSH1 0x0 DUP1 REVERT JUMPDEST DUP7 PUSH1 0x20 DUP3 PUSH1 0x5 SHL DUP6 ADD ADD GT ISZERO PUSH2 0x511 JUMPI PUSH1 0x0 DUP1 REVERT JUMPDEST PUSH1 0x20 SWAP3 SWAP1 SWAP3 ADD SWAP7 SWAP2 SWAP6 POP SWAP1 SWAP4 POP POP POP POP JUMP JUMPDEST PUSH3 0x20000 DUP2 ADD DUP2 DUP4 PUSH1 0x0 JUMPDEST PUSH2 0x1000 DUP2 LT ISZERO PUSH2 0x553 JUMPI DUP2 MLOAD PUSH3 0xFFFFFF AND DUP4 MSTORE PUSH1 0x20 SWAP3 DUP4 ADD SWAP3 SWAP1 SWAP2 ADD SWAP1 PUSH1 0x1 ADD PUSH2 0x52E JUMP JUMPDEST POP POP POP SWAP3 SWAP2 POP POP JUMP JUMPDEST DUP1 CALLDATALOAD PUSH1 0xFF DUP2 AND DUP2 EQ PUSH2 0x56D JUMPI PUSH1 0x0 DUP1 REVERT JUMPDEST SWAP2 SWAP1 POP JUMP JUMPDEST PUSH1 0x0 DUP1 PUSH1 0x40 DUP4 DUP6 SUB SLT ISZERO PUSH2 0x585 JUMPI PUSH1 0x0 DUP1 REVERT JUMPDEST PUSH2 0x58E DUP4 PUSH2 0x55C JUMP JUMPDEST SWAP2 POP PUSH2 0x59C PUSH1 0x20 DUP5 ADD PUSH2 0x55C JUMP JUMPDEST SWAP1 POP SWAP3 POP SWAP3 SWAP1 POP JUMP JUMPDEST PUSH4 0x4E487B71 PUSH1 0xE0 SHL PUSH1 0x0 MSTORE PUSH1 0x32 PUSH1 0x4 MSTORE PUSH1 0x24 PUSH1 0x0 REVERT JUMPDEST PUSH1 0x0 PUSH1 0x20 DUP3 DUP5 SUB SLT ISZERO PUSH2 0x5CD JUMPI PUSH1 0x0 DUP1 REVERT JUMPDEST DUP2 CALLDATALOAD PUSH5 0xFFFFFFFFFF DUP2 AND DUP2 EQ PUSH2 0x5E2 JUMPI PUSH1 0x0 DUP1 REVERT JUMPDEST SWAP4 SWAP3 POP POP POP JUMP JUMPDEST PUSH4 0x4E487B71 PUSH1 0xE0 SHL PUSH1 0x0 MSTORE PUSH1 0x11 PUSH1 0x4 MSTORE PUSH1 0x24 PUSH1 0x0 REVERT JUMPDEST PUSH2 0xFFFF DUP2 DUP2 AND DUP4 DUP3 AND MUL DUP1 DUP3 AND SWAP2 SWAP1 DUP3 DUP2 EQ PUSH2 0x61D JUMPI PUSH2 0x61D PUSH2 0x5E9 JUMP JUMPDEST POP POP SWAP3 SWAP2 POP POP JUMP JUMPDEST PUSH2 0xFFFF DUP2 DUP2 AND DUP4 DUP3 AND ADD SWAP1 DUP1 DUP3 GT ISZERO PUSH2 0x640 JUMPI PUSH2 0x640 PUSH2 0x5E9 JUMP JUMPDEST POP SWAP3 SWAP2 POP POP JUMP INVALID LOG2 PUSH5 0x6970667358 0x22 SLT KECCAK256 0xF6 REVERT 0xCB 0xBE CALLDATACOPY EXTCODECOPY 0xAA PUSH31 0xE23CE4E55301B38D6C84E6B41051FA96B168CBB361A5D51A64736F6C634300 ADDMOD XOR STOP CALLER "},"methodIdentifiers":{"HEIGHT()":"69ea80d5","MAX_BATCH()":"950bff9f","TOTAL()":"27efc086","WIDTH()":"d44d3394","getCanvas()":"06a00d43","getPixel(uint8,uint8)":"3c98c38e","paintPixels(uint40[])":"01bd86b6","version()":"54fd4d50"}}}}}