{
  "_format": "hh-sol-artifact-1",
  "contractName": "RPlace",
  "sourceName": "contracts/RPlace.sol",
  "abi": [
    {
      "inputs": [
        {
          "internalType": "uint256",
          "name": "size",
          "type": "uint256"
        }
      ],
      "name": "BatchTooLarge",
      "type": "error"
    },
    {
      "inputs": [],
      "name": "EmptyBatch",
      "type": "error"
    },
    {
      "inputs": [
        {
          "internalType": "uint8",
          "name": "x",
          "type": "uint8"
        },
        {
          "internalType": "uint8",
          "name": "y",
          "type": "uint8"
        }
      ],
      "name": "OutOfBounds",
      "type": "error"
    },
    {
      "anonymous": false,
      "inputs": [
        {
          "indexed": true,
          "internalType": "uint8",
          "name": "x",
          "type": "uint8"
        },
        {
          "indexed": true,
          "internalType": "uint8",
          "name": "y",
          "type": "uint8"
        },
        {
          "indexed": false,
          "internalType": "uint24",
          "name": "rgb",
          "type": "uint24"
        },
        {
          "indexed": true,
          "internalType": "address",
          "name": "painter",
          "type": "address"
        }
      ],
      "name": "PixelPainted",
      "type": "event"
    },
    {
      "inputs": [],
      "name": "HEIGHT",
      "outputs": [
        {
          "internalType": "uint8",
          "name": "",
          "type": "uint8"
        }
      ],
      "stateMutability": "view",
      "type": "function"
    },
    {
      "inputs": [],
      "name": "MAX_BATCH",
      "outputs": [
        {
          "internalType": "uint256",
          "name": "",
          "type": "uint256"
        }
      ],
      "stateMutability": "view",
      "type": "function"
    },
    {
      "inputs": [],
      "name": "TOTAL",
      "outputs": [
        {
          "internalType": "uint16",
          "name": "",
          "type": "uint16"
        }
      ],
      "stateMutability": "view",
      "type": "function"
    },
    {
      "inputs": [],
      "name": "WIDTH",
      "outputs": [
        {
          "internalType": "uint8",
          "name": "",
          "type": "uint8"
        }
      ],
      "stateMutability": "view",
      "type": "function"
    },
    {
      "inputs": [],
      "name": "getCanvas",
      "outputs": [
        {
          "internalType": "uint24[4096]",
          "name": "",
          "type": "uint24[4096]"
        }
      ],
      "stateMutability": "view",
      "type": "function"
    },
    {
      "inputs": [
        {
          "internalType": "uint8",
          "name": "x",
          "type": "uint8"
        },
        {
          "internalType": "uint8",
          "name": "y",
          "type": "uint8"
        }
      ],
      "name": "getPixel",
      "outputs": [
        {
          "internalType": "uint24",
          "name": "",
          "type": "uint24"
        }
      ],
      "stateMutability": "view",
      "type": "function"
    },
    {
      "inputs": [
        {
          "internalType": "uint40[]",
          "name": "packed",
          "type": "uint40[]"
        }
      ],
      "name": "paintPixels",
      "outputs": [],
      "stateMutability": "nonpayable",
      "type": "function"
    },
    {
      "inputs": [],
      "name": "version",
      "outputs": [
        {
          "internalType": "uint64",
          "name": "",
          "type": "uint64"
        }
      ],
      "stateMutability": "view",
      "type": "function"
    }
  ],
  "bytecode": "0x608060405234801561001057600080fd5b5061067d806100206000396000f3fe608060405234801561001057600080fd5b50600436106100885760003560e01c806354fd4d501161005b57806354fd4d501461010257806369ea80d514610130578063950bff9f1461014a578063d44d33941461013057600080fd5b806301bd86b61461008d57806306a00d43146100a257806327efc086146100c05780633c98c38e146100db575b600080fd5b6100a061009b3660046104ae565b610161565b005b6100aa61037d565b6040516100b79190610523565b60405180910390f35b6100c86103e3565b60405161ffff90911681526020016100b7565b6100ee6100e9366004610572565b6103f1565b60405162ffffff90911681526020016100b7565b61019a546101179067ffffffffffffffff1681565b60405167ffffffffffffffff90911681526020016100b7565b610138604081565b60405160ff90911681526020016100b7565b61015361010081565b6040519081526020016100b7565b8060008190036101845760405163c2e5347d60e01b815260040160405180910390fd5b6101008111156101af5760405163533dcfcf60e11b8152600481018290526024015b60405180910390fd5b60005b8181101561035257600060208585848181106101d0576101d06105a5565b90506020020160208101906101e591906105bb565b64ffffffffff16901c905060006018868685818110610206576102066105a5565b905060200201602081019061021b91906105bb565b64ffffffffff16901c9050600086868581811061023a5761023a6105a5565b905060200201602081019061024f91906105bb565b9050604060ff84161015806102685750604060ff831610155b156102935760405163d47d572960e01b815260ff8085166004830152831660248201526044016101a6565b80600060ff808616906102aa9060409087166105ff565b6102b49190610625565b61ffff1661100081106102c9576102c96105a5565b600a91828204019190066003026101000a81548162ffffff021916908362ffffff160217905550336001600160a01b03168260ff168460ff167f892eb2ad44ef0a061063077a9ee9df7bcad133acb6073aa084b762f393f7d5598460405161033c919062ffffff91909116815260200190565b60405180910390a45050508060010190506101b2565b505061019a805467ffffffffffffffff8082166001011667ffffffffffffffff199091161790555050565b61038561048d565b604080516202000081019182905290600090611000908280855b82829054906101000a900462ffffff1662ffffff168152602001906003019060208260020104928301926001038202915080841161039f5790505050505050905090565b6103ee6040806105ff565b81565b6000604060ff841610158061040a5750604060ff831610155b156104355760405163d47d572960e01b815260ff8085166004830152831660248201526044016101a6565b600060ff8085169061044b9060409086166105ff565b6104559190610625565b61ffff16611000811061046a5761046a6105a5565b600a91828204019190066003029054906101000a900462ffffff16905092915050565b60405180620200000160405280611000906020820280368337509192915050565b600080602083850312156104c157600080fd5b823567ffffffffffffffff808211156104d957600080fd5b818501915085601f8301126104ed57600080fd5b8135818111156104fc57600080fd5b8660208260051b850101111561051157600080fd5b60209290920196919550909350505050565b620200008101818360005b61100081101561055357815162ffffff1683526020928301929091019060010161052e565b50505092915050565b803560ff8116811461056d57600080fd5b919050565b6000806040838503121561058557600080fd5b61058e8361055c565b915061059c6020840161055c565b90509250929050565b634e487b7160e01b600052603260045260246000fd5b6000602082840312156105cd57600080fd5b813564ffffffffff811681146105e257600080fd5b9392505050565b634e487b7160e01b600052601160045260246000fd5b61ffff81811683821602808216919082811461061d5761061d6105e9565b505092915050565b61ffff818116838216019080821115610640576106406105e9565b509291505056fea2646970667358221220f6fdcbbe373caa7ee23ce4e55301b38d6c84e6b41051fa96b168cbb361a5d51a64736f6c63430008180033",
  "linkReferences": {},
  "deployedLinkReferences": {}
}